S01A0000506F74656E74696F6D657465722046756C6C2E73726563E8
S1130000FFC000001DC100001BC1000019C1000099
S113001017C1000015C1000013C1000011C1000088
S11300200FC100000DC100000BC1000009C1000098
S113003007C1000005C1000003C1000001C10000A8
S1130040FFC00000FDC00000FBC00000F9C00000BC
S1130050F7C00000F5C00000F3C00000F1C00000CC
S1130060EFC0000070C70000EBC00000E9C0000052
S1130070E7C00000E5C00000E3C00000E1C00000EC
S1130080DFC00000DDC00000DBC00000D9C00000FC
S11300900C945708D5C00000D3C00000D1C00000A4
S11300A0CFC00000CDC00000CBC00000C9C000001C
S11300B0C7C00000C5C00000C3C00000C1C000002C
S11300C0BFC00000BDC00000BBC000000C94AD0860
S11300D0B7C00000B5C000000C94F708B1C0000020
S11300E0AFC00000D302EB0242038C031E0572056D
S11300F065076E616E00696E660000407A10F35AFF
S113010000A0724E18090010A5D4E80000E8764853
S1130110170000E40B54020000CA9A3B000000E1FF
S1130120F505000080969800000040420F00000092
S1130130A08601000000102700000000E803000072
S113014000006400000000000A000000000001003C
S1130150000000002C76D888DC674F0823DFC1DF5D
S1130160AE59E1B1B796E5E3E453C63AE651997660
S113017096E8E6C28426EB898C9B62ED407C6FFC9A
S1130180EFBC9C9F40F2BAA56FA5F490055A2AF7DC
S11301905C936B6CF9676DC11BFCE0E40D47FEF5E5
S11301A020E6B500D0ED902E03009435770500804D
S11301B0841E080000204E0A000000C80C333333AC
S11301C0330F986E12831141EF8D2114893BE6554C
S11301D016CFFEE6DB18D1844B381BF77C1D901D2F
S11301E0A4BBE424203284725E228100C9F124EC91
S11301F0A1E53D276364696E6F70737578585B0081
S113020011241FBECFEFD1E2DEBFCDBF00E00CBF93
S113021013E0A0E0B2E0E0E2FBE200E00BBF02C0CA
S113022007900D92AE3EB107D9F72FE1AEEEB3E0E1
S113023001C01D92AF34B207E1F724D00C948E159F
S1130240DFCE80E480937C0086E880937A00089572
S1130250ECE7F0E09081907F8F70892B8083EAE750
S1130260F0E080818064808380917A0084FFFCCFF9
S1130270EAE7F0E08081806180838091780090914A
S11302807900089587E690E040D688E090E0C2D6F1
S113029087E690E044D787E690E097D77894D1DF5B
S11302A068D1FECFAC0130E08FEF9FEF16C0FA01AA
S11302B0E30FF11D2081822720E00CC080FF07C0DE
S11302C09695879571E0872770EA972702C09695DF
S11302D087952F5F283090F33F5F361740F30895DA
S11302E00F931F93CF93DF93CDB7DEB765970FB608
S11302F0F894DEBF0FBECDBF85E0898380E18A8399
S11303001B8281E08C831D8286E08E838CE08F8348
S1130310E5E3F7E0808191819887898782819381E1
S11303209A878B87848195819C878D878681978125
S11303309E878F8780859185988B898B828593850D
S11303409A8B8B8B63E1CE010196ACDF8C8B9D8BFA
S113035000E010E00AC0E1E0F0E0EC0FFD1FE00F68
S1130360F11F80813DD70F5F1F4F053111059CF3AD
S113037065960FB6F894DEBF0FBECDBFDF91CF9167
S11303801F910F9108952FEF83ED90E3215080404A
S11303909040E1F700C0000080E092E0C8D585E617
S11303A096E0C5D581E196E0C2D589E996E0BFD54E
S11303B081EF96E0BCD589EC96E0B9D581E197E070
S11303C0B6D581E496E0B3C508952FEF83ED90E3AD
S11303D0215080409040E1F700C000008AE192E0A3
S11303E02BD685E696E028D62FEF81EE94E02150B7
S11303F080409040E1F700C0000081E196E01CD607
S11304002FEF81EE94E0215080409040E1F700C04E
S1130410000089E996E010D62FEF81EE94E0215098
S113042080409040E1F700C0000081EF96E004D6E0
S11304302FEF81EE94E0215080409040E1F700C01E
S1130440000089EC96E0F8D52FEF81EE94E021507E
S113045080409040E1F700C0000081E197E0ECD5D6
S11304602FEF81EE94E0215080409040E1F700C0EE
S1130470000081E496E0E0D52FEF81EE94E0215076
S113048080409040E1F700C0000008950F931F934F
S1130490CF93DF93CDB7DEB7D2500FB6F894DEBF5B
S11304A00FBECDBF8091EC068F938091EB068F93A6
S11304B08091EA068F938091E9068F9380910404DA
S11304C08F93809103048F93809102048F93809182
S11304D001048F93809164068F93809163068F93B8
S11304E0809162068F93809161068F938091F006CC
S11304F08F938091EF068F938091EE068F93809176
S1130500ED068F93809188068F93809187068F9351
S1130510809186068F93809185068F93809134070E
S11305208F93809133078F93809132078F938091BB
S113053031078F9382E392E09F938F938E010F5F35
S11305401F4F1F930F930E943510C801FAD50FB6A1
S1130550F894DEBF0FBECDBFDE5F0FB6F894DEBFEA
S11305600FBECDBFDF91CF911F910F910895B8CEEB
S113057008958F929F92AF92BF92CF92DF92EF92A3
S1130580FF920F931F93CF93DF938091F60390E034
S11305908730910508F0ACC4FC018827EE58FF4F62
S11305A08F4F0C94970E86E492E0C1D485E592E0D7
S11305B0BED481E892E040D585E592E03DD5109225
S11305C0F0031092F1031092F2031092F30381E00E
S11305D08093F6038DC48DE499E0EDD4811106C0B7
S11305E08DE499E035D5882309F482C480914D09BE
S11305F097D480914D0990914E098D30910519F051
S11306008A309105E9F48091F0039091F103A0916F
S1130610F203B091F3030097A105B10541F0FC0189
S1130620E15BF44F108282E08093F60361C4109280
S1130630F0031092F1031092F2031092F30358C4E2
S11306404091F0035091F1036091F2037091F30330
S11306504F3F23E052076105710508F049C48A0140
S11306609B010F5F1F4F2F4F3F4F0093F0031093D9
S1130670F1032093F2033093F303FA01E15BF44FA7
S1130680808336C48FE499E09F938F938FE892E040
S11306909F938F93CFE4DBE0DF93CF930E946310AB
S11306A08C01DF93CF931F930F9385E992E09F937F
S11306B08F9382E08F931F928DE497E09F938F93A3
S11306C00E94F90F8DE497E032D48DB79EB740961F
S11306D00FB6F8949EBF0FBE8DBFC0E0D0E008C037
S11306E090E00E94960FFE01E15BF64F8083219615
S11306F0FE01E15BF64F80818111F2CF01301105DB
S113070009F0F6C381E090E09093F5038093F4033D
S113071083E08093F603ECC383E09ADDBC0180E0C0
S113072090E08BD64B015C0160930506709306063E
S1130730809307069093080620E030E040EA50E4F6
S11307400AD720E030EC4FE754E4E3D56B017C0199
S11307506093ED067093EE068093EF069093F00697
S113076020E030E048EC52E4C501B401F4D620E0C6
S113077030EC4FE754E4CDD56093310770933207E2
S11307808093330790933407A701960160E070E0EB
S113079080EA90E459D59B01AC01C701B601B9D5F3
S11307A020E030E848E453E4D6D69B01AC016093E2
S11307B08506709386068093870690938806C70102
S11307C0B601A7D59B01AC016093610670936206E4
S11307D08093630690936406C701B601BCD6609308
S11307E0010470930204809303049093040420E0B2
S11307F030E040E05FE3AFD69B01AC016091E906D5
S11308007091EA068091EB069091EC061ED56093F8
S1130810E9067093EA068093EB069093EC0609E8E8
S113082016E023E046E0C501B4010E949F0EE801F2
S1130830DF930F938AEA92E09F938F9385E696E085
S11308409F938F930E9435106091ED067091EE0690
S11308508091EF069091F00623E046E00E949F0EFF
S1130860DF930F9385EB92E09F938F9381EF96E054
S11308709F938F930E9435106091310770913207D6
S1130880809133079091340723E046E00E949F0E45
S1130890DF930F9386EC92E09F938F9381E196E030
S11308A09F938F930E943510609185067091860600
S11308B0809187069091880623E046E00E949F0E6F
S11308C0DF930F9387EE92E09F938F9389E996E0ED
S11308D09F938F930E943510609161067091620618
S11308E0809163069091640626E046E00E949F0E84
S11308F0DF930F9387E093E09F938F9389EC96E0C7
S11309009F938F930E9435106091010470910204AB
S1130910809103049091040426E046E00E949F0E17
S1130920DF930F9388E193E09F938F9381E197E0A6
S11309309F938F930E9435108DB79EB784960FB600
S1130940F8949EBF0FBE8DBF6091E9067091EA06D0
S11309508091EB069091EC0626E046E00E949F0E03
S1130960DF930F9387E293E09F938F9381E496E064
S11309709F938F930E9435106091310770913207D5
S113098080913307909134072CD5C5E3D7E0798360
S113099068836091850670918606809187069091A0
S11309A088061FD57B836A8320E030E048EC52E45C
S11309B06091ED067091EE068091EF069091F0063D
S11309C0CAD50FD57D836C8320E034E244E759E433
S11309D0609161067091620680916306909164064D
S11309E0BAD5FFD47F836E8320E034E244E759E430
S11309F060910104709102048091030490910404B5
S1130A00AAD5EFD47987688720E030E04AE754E438
S1130A106091E9067091EA068091EB069091EC06EC
S1130A209AD5DFD47B876A8785E08093F6030F909D
S1130A300F900F900F900F900F905AC28091EE0379
S1130A40882309F455C21092EE031092EF038091AB
S1130A500906853009F04CC280910A06803109F0FC
S1130A6047C210910F0689E0810F90E0FC01E85F16
S1130A70F94FC081D0E0DC2FCC27FC01E95FF94FAE
S1130A808081C82B67E0610F89E096E00BDCC81712
S1130A90D90709F02DC21DC0842F90E0FC01EE0F90
S1130AA0FF1FE05FF94F208130E0322F2227FC0145
S1130AB03496EE0FFF1FE75FF94F5081252BFC01A1
S1130AC03696EE0FFF1FEB5CF84F318320834F5FA8
S1130AD001C040E0812F86954817F0F285E08093AD
S1130AE0F60306C268E373E08FE499E00E94A90F5D
S1130AF0892B11F448DCE9C161E473E08FE499E0E7
S1130B000E94A90F892B11F460DCDFC165E473E056
S1130B108FE499E00E94A90F892B11F4B7DCD5C1A9
S1130B206AE473E08FE499E00E94A90F892B11F421
S1130B301EDDCBC161E573E08FE499E00E94A90F4B
S1130B40892B09F4AAC1B3C183E082DBBC0180E034
S1130B5090E073D4C62FD72FB82EA92E862F9D2FA1
S1130B60AB2DBA2D8093050690930606A093070635
S1130B70B093080620E030E040EA50E46C2F7D2F6B
S1130B808B2D9A2DE8D420E030EC4FE754E4C1D308
S1130B906B017C016093ED067093EE068093EF0683
S1130BA09093F00620E030E048EC52E46C2F7D2F67
S1130BB08B2D9A2DD0D420E030EC4FE754E4A9D308
S1130BC0609331077093320780933307909334070F
S1130BD0A701960160E070E080EA90E435D39B01C0
S1130BE0AC01C701B60195D320E030E848E453E4F2
S1130BF0B2D49B01AC016093850670938606809302
S1130C00870690938806C701B60183D39B01AC0184
S1130C106093610670936206809363069093640602
S1130C20C701B60198D460930104709302048093C1
S1130C3003049093040420E030E040E05FE38BD4AD
S1130C409B01AC016091E9067091EA068091EB0684
S1130C509091EC06FAD26093E9067093EA068093C9
S1130C60EB069093EC06AF92BF92DF93CF9385E5AA
S1130C7093E09F938F931F92C0E2CF9385E696E013
S1130C809F938F930E94F90F8091F0068F93809128
S1130C90EF068F938091EE068F938091ED068F93EC
S1130CA081E693E09F938F931F92CF9381EF96E019
S1130CB09F938F930E94F90F809134078F938091B3
S1130CC033078F93809132078F93809131078F93ED
S1130CD082E793E09F938F931F92D0E3DF9381E1A8
S1130CE096E09F938F930E94F90F809188068F93CB
S1130CF0809187068F93809186068F9380918506D5
S1130D008F9383E993E09F938F931F92DF9389E9F5
S1130D1096E09F938F930E94F90F8DB79EB78896A4
S1130D200FB6F8949EBF0FBE8DBF809164068F935B
S1130D30809163068F93809162068F938091610600
S1130D408F9383EB93E09F938F931F92CF9389ECC0
S1130D5096E09F938F930E94F90F809104048F93E0
S1130D60809103048F93809102048F9380910104F6
S1130D708F9384EC93E09F938F931F92CF9381E1A1
S1130D8097E09F938F930E94F90F8091EC068F93C5
S1130D908091EB068F938091EA068F938091E90608
S1130DA08F9383ED93E09F938F931F92CF9381E46E
S1130DB096E09F938F930E94F90F60913107709191
S1130DC0320780913307909134070BD3C5E3D7E002
S1130DD07983688360918506709186068091870681
S1130DE090918806FED27B836A8320E030E048EC51
S1130DF052E46091ED067091EE068091EF069091B9
S1130E00F006A9D3EED27D836C8320E034E244E77C
S1130E1059E4609161067091620680916306909135
S1130E20640699D3DED27F836E8320E034E244E704
S1130E3059E460910104709102048091030490913B
S1130E40040489D3CED27987688720E030E04AE76A
S1130E5054E46091E9067091EA068091EB06909162
S1130E60EC0679D3BED27B876A878DDA80DBADDA74
S1130E700DDB9FEF21EE84E0915020408040E1F7AC
S1130E8000C000000F5F1F4F8DB79EB74E960FB680
S1130E90F8949EBF0FBE8DBF02C000E010E00E317B
S1130EA011050CF451CE86E08093F60321C0109214
S1130EB0F5031092F40384EE93E039D084EE93E0CA
S1130EC0BBD086E08093F60313C09FEF23ED80E34D
S1130ED0915020408040E1F700C000001092F003E0
S1130EE01092F1031092F2031092F3031092F6039E
S1130EF0DF91CF911F910F91FF90EF90DF90CF90F2
S1130F00BF90AF909F908F9008959093C500809369
S1130F10C40086E08093C20088E98093C1000895EC
S1130F209091C00095FFFCCF8093C6000895CF93A5
S1130F30DF93EC0102C02196F3DF88818111FBCF9E
S1130F40DF91CF9108951F920F920FB60F92112443
S1130F500BB60F922F934F935F938F939F93EF93BF
S1130F60FF932091C6008091FF0390910004AC018F
S1130F704F5F5F4F509300044093FF03FC01E15B1C
S1130F80F84E20838091FF039091000481159440D2
S1130F9020F0109200041092FF03FF91EF919F91B3
S1130FA08F915F914F912F910F900BBE0F900FBEB9
S1130FB00F901F9018954091FF03509100042091C9
S1130FC0FD033091FE034217530701F12091FD0305
S1130FD03091FE03A9014F5F5F4F5093FE0340938E
S1130FE0FD03F901E15BF84E208130E0FC0131831F
S1130FF020838091FD039091FE038115944040F07D
S11310001092FE031092FD0381E0089580E008959C
S113101081E008959093CD008093CC0086E0809386
S1131020CA0088E98093C90008959091C80095FF8B
S1131030FCCF8093CE000895CF93DF93EC0102C0E0
S11310402196F3DF88818111FBCFDF91CF91089541
S11310504091FB035091FC032091F9033091FA0372
S11310604217530701F12091F9033091FA03A901C2
S11310704F5F5F4F5093FA034093F903F901E15B2B
S1131080F04F208130E0FC01318320838091F9030B
S11310909091FA038115944040F01092FA03109253
S11310A0F90381E0089580E0089581E008951F9296
S11310B00F920FB60F9211240BB60F922F934F93EA
S11310C05F938F939F93EF93FF932091CE00809132
S11310D0FB039091FC03AC014F5F5F4F5093FC0303
S11310E04093FB03FC01E15BF04F20838091FB0301
S11310F09091FC038115944020F01092FC0310920F
S1131100FB03FF91EF919F918F915F914F912F91ED
S11311100F900BBE0F900FBE0F901F9018959093D9
S1131120D5008093D40086E08093D20088E9809330
S1131130D10008959091D00095FFFCCF8093D60004
S11311400895CF93DF93EC0102C02196F3DF8881E9
S11311508111FBCFDF91CF9108951F920F920FB6AB
S11311600F9211240BB60F922F934F935F938F938B
S11311709F93EF93FF932091D6008091F703909172
S1131180F803AC014F5F5F4F5093F8034093F703AC
S1131190FC01E15BFC4E20838091F7039091F803FE
S11311A08115944020F01092F8031092F703FF91F8
S11311B0EF919F918F915F914F912F910F900BBE63
S11311C00F900FBE0F901F90189590933501809348
S11311D0340186E08093320188E9809331010895D7
S11311E09091300195FFFCCF8093360108951F92B2
S11311F00F920FB60F9211240BB60F928F939F93F9
S1131200EF93FF93909136018091EF03883088F437
S1131210E091EF0381E08E0F8093EF03F0E0E75F4E
S1131220F94F90838091EF03883018F081E0809328
S1131230EE03FF91EF919F918F910F900BBE0F9052
S11312400FBE0F901F9018955058BB27AA270ED099
S113125048C139D130F03ED120F031F49F3F11F430
S11312601EF42EC10EF4E095E7FB24C1E92F4AD108
S113127080F3BA17620773078407950718F071F4AF
S11312809EF562C10EF4E0950B2EBA2FA02D0B0132
S1131290B90190010C01CA01A0011124FF27591BB7
S11312A099F0593F50F4503E68F11A16F040A22FBD
S11312B0232F342F4427585FF3CF4695379527952E
S11312C0A795F0405395C9F77EF41F16BA0B620B2D
S11312D0730B840BBAF09150A1F0FF0FBB1F661F74
S11312E0771F881FC2F70EC0BA0F621F731F841FB7
S11312F048F4879577956795B795F7959E3F08F0DD
S1131300B3CF9395880F08F09927EE0F979587959B
S113131008950CD0E6C0DED040F0D5D030F021F4F2
S11313205F3F19F0C7C0511110C1CAC0EBD098F388
S11313309923C9F35523B1F3951B550BBB27AA2752
S113134062177307840738F09F5F5F4F220F331FC4
S1131350441FAA1FA9F333D00E2E3AF0E0E830D090
S113136091505040E695001CCAF729D0FE2F27D093
S1131370660F771F881FBB1F261737074807AB0761
S1131380B0E809F0BB0B802DBF01FF2793585F4FD6
S11313902AF09E3F510568F08DC0D7C05F3FECF343
S11313A0983EDCF3869577956795B795F7959F5F9B
S11313B0C9F7880F911D9695879597F90895E1E0EF
S11313C0660F771F881FBB1F621773078407BA074E
S11313D020F0621B730B840BBA0BEE1F88F7E095A9
S11313E0089598D088F09F5790F0B92F9927B75156
S11313F0A0F0D1F0660F771F881F991F1AF0BA95D5
S1131400C9F712C0B13081F09FD0B1E008959CC0FB
S1131410672F782F8827B85F39F0B93FCCF38695CA
S113142077956795B395D9F73EF490958095709527
S113143061957F4F8F4F9F4F0895E89409C097FBA4
S11314403EF490958095709561957F4F8F4F9F4F97
S11314509923A9F0F92F96E9BB279395F6958795DB
S113146077956795B795F111F8CFFAF4BB0F11F49E
S113147060FF1BC06F5F7F4F8F4F9F4F16C0882345
S113148011F096E911C0772321F09EE8872F762F7B
S113149005C0662371F096E8862F70E060E02AF0BC
S11314A09A95660F771F881FDAF7880F96958795A8
S11314B097F9089597F99F6780E870E060E00895D0
S11314C09FEF80EC089500240A9416161706180658
S11314D00906089500240A94121613061406050634
S11314E00895092E0394000C11F4882352F0BB0FC5
S11314F040F4BF2B11F460FF04C06F5F7F4F8F4F28
S11315009F4F089557FD9058440F551F59F05F3F62
S113151071F04795880F97FB991F61F09F3F79F011
S113152087950895121613061406551FF2CF469593
S1131530F1DF08C0161617061806991FF1CF869515
S11315407105610508940895E894BB2766277727F9
S1131550CB0197F908950BD0C4CFB5DF28F0BADFDB
S113156018F0952309F0A6CFABCF1124EECFCADF34
S1131570A0F3959FD1F3950F50E0551F629FF001A2
S1131580729FBB27F00DB11D639FAA27F00DB11DFB
S1131590AA1F649F6627B00DA11D661F829F222784
S11315A0B00DA11D621F739FB00DA11D621F839F0B
S11315B0A00D611D221F749F3327A00D611D231FE1
S11315C0849F600D211D822F762F6A2F11249F572F
S11315D050408AF0E1F088234AF0EE0FFF1FBB1F52
S11315E0661F771F881F91505040A9F79E3F5105F1
S11315F070F060CFAACF5F3FECF3983EDCF38695A2
S113160077956795B795F795E7959F5FC1F7FE2B9B
S1131610880F911D9695879597F908952F923F927B
S11316204F925F926F927F928F929F92AF92BF92EE
S1131630CF92DF92EF92FF920F931F93CF93DF939A
S1131640CDB7DEB760970FB6F894DEBF0FBECDBF3F
S11316507C011B016A01FC0117821682838181FFD0
S11316602AC39E012F5F3F4F3901F7019381F10196
S113167093FD859193FF81911F01882309F417C37A
S1131680853239F493FD859193FF81911F01853251
S113169031F4B70190E071D456016501E6CF10E052
S11316A0512C912CFFE1F915D8F08B3279F038F4F4
S11316B0803279F08332A1F4F92DF0612EC08D329D
S11316C061F0803369F4292D21602DC0392D3260F9
S11316D0932E892D8460982E2AC0E92DE86015C0C8
S11316E097FC2DC020ED280F2A3088F496FE06C002
S11316F03AE0139F200D1124122F19C08AE0589E3E
S1131700200D1124522EE92DE0629E2E10C08E323F
S113171031F496FCCCC2F92DF0649F2E08C08C36AF
S113172021F4292D2068922E02C0883641F4F1015B
S113173093FD859193FF81911F018111B3CF9BEBA1
S1131740980F933020F4992D9061805E07C09BE937
S1131750980F933008F059C1992D9F7E96FF16E09B
S11317609F73992E853619F49064992E08C0863695
S113177021F4392F3068932E02C01111115097FEB5
S113178007C01C3350F444244394410E27E00BC09B
S1131790183038F027E017E005C027E09CE3492E15
S11317A002C0212F412C560184E0A80EB11CF60181
S11317B06081718182819381042DA301DFD26C0148
S11317C0F981FC87F0FF02C0F3FF06C091FC06C05C
S11317D092FE06C000E205C00DE203C00BE201C0A8
S11317E000E08C858C7019F0011143C280C297FE11
S11317F010C04C0CFC85F4FF04C08A81813309F4C9
S11318004A94141474F528E0241578F588E0482ED9
S11318102CC096FC2AC0812F90E08C159D059CF06D
S11318203CEFC3163FEFD30674F0892D8068982EE1
S11318300AC0E2E0F0E0EC0FFD1FE10FF11D808132
S1131840803319F411501111F4CF97FE0EC04424C3
S11318504394410E812F90E0C816D9062CF41C192C
S113186004C04424439401C010E097FE06C01C1435
S11318701D0434F4C601019605C085E090E002C061
S113188081E090E001110196112331F0212F30E025
S11318902F5F3F4F820F931F252D30E08217930750
S11318A014F4581A01C0512C892D897041F4552023
S11318B031F0B70180E290E060D35A94F8CF00236E
S11318C021F0B701802F90E058D393FC08C0552035
S11318D031F0B70180E390E050D35A94F8CF97FEEB
S11318E04AC04601D7FE02C0812C912CC60188193A
S11318F09909F301E80FF91FFE87ED879601241972
S11319003109388B2F87012F10E0119501951109AA
S11319103FEF8316930621F4B7018EE290E02DD3B6
S1131920C814D9044CF08F8598898815990524F436
S1131930ED85FE85818101C080E3F1E08F1A910875
S11319402D853E852F5F3F4F3E872D87801691065C
S113195024F0B70190E011D3DBCFC814D90441F4CB
S11319609A81963320F4953319F43C8534FF81E34E
S1131970B70190E048C08A81813319F09C859F7E2D
S11319809C87B70190E0F9D2111105C094FC16C0F0
S113199085E690E015C0B7018EE290E0EED21E5FBE
S11319A082E001E0080FF301E80FF11D8081B70127
S11319B090E0E3D2802F0113F4CFE8CF85E490E0E8
S11319C0B701DBD2D7FC06C0C114D10441F4EC85C5
S11319D0E4FF05C0D194C194D1088DE201C08BE22B
S11319E0B70190E0CAD280E32AE0C216D1042CF0F9
S11319F08F5FFAE0CF1AD108F7CFB70190E0BDD2DC
S1131A00B701C601C096B9D249C1833631F08337D4
S1131A1079F0833509F052C01FC0560132E0A30E9D
S1131A20B11CF6018081898301E010E0630111C0DB
S1131A305601F2E0AF0EB11CF601C080D18096FED3
S1131A4003C0612F70E002C06FEF7FEFC6018AD23E
S1131A508C01F92DFF7713C0560122E0A20EB11CB0
S1131A60F601C080D18096FE03C0612F70E002C0F1
S1131A706FEF7FEFC60162D28C01F92DF0689F2EC3
S1131A80F3FD18C0852D90E00817190798F4B701E5
S1131A9080E290E072D25A94F5CFF60197FC8591DA
S1131AA097FE81916F01B70190E067D251105A946B
S1131AB0015011090115110581F7F0C0843611F0A8
S1131AC0893659F5560197FE09C024E0A20EB11CCF
S1131AD0F60160817181828193810AC0F2E0AF0EC8
S1131AE0B11CF60160817181072E000C880B990BE3
S1131AF0F92DFF769F2E97FF09C0909580957095DC
S1131B0061957F4F8F4F9F4FF0689F2E2AE030E002
S1131B10A301FAD2C82EC6183EC0092D853721F478
S1131B200F7E2AE030E01DC0097F8F3691F018F453
S1131B30883559F0BCC0803719F0883711F0B7C028
S1131B40006104FF09C0046007C094FE08C0066079
S1131B5006C028E030E005C020E130E002C020E10A
S1131B6032E0560107FF09C084E0A80EB11CF6015B
S1131B70608171818281938108C0F2E0AF0EB11C53
S1131B80F6016081718180E090E0A301BDD2C82E8E
S1131B90C6180F77902E96FE0BC0092D0E7FC11626
S1131BA050F494FE0AC092FC08C0092D0E7E05C0B4
S1131BB0DC2C092D03C0DC2C01C0D12E04FF0DC088
S1131BC0FE01EC0DF11D8081803311F4097E09C002
S1131BD002FF06C0D394D39404C0802F867809F002
S1131BE0D39403FD10C000FF06C01C2DD51478F457
S1131BF0150D1D190CC0D51450F4B70180E290E006
S1131C00BCD1D394F8CFD51410F45D1801C0512C75
S1131C1004FF0FC0B70180E390E0AFD102FF16C00C
S1131C2001FD03C088E790E002C088E590E0B701B9
S1131C300CC0802F867851F001FF02C08BE201C0F6
S1131C4080E207FD8DE2B70190E097D1C11630F430
S1131C50B70180E390E091D11150F8CFCA94F30119
S1131C60EC0DF11D8081B70190E087D1C110F6CF52
S1131C7015C0F4E0F51550F584E0581A93FE1EC023
S1131C80011125C02C8523FF27C002EF10E0392D58
S1131C903071932EF8018491811121C0552009F4EB
S1131CA0FCCCB70180E290E068D15A94F7CFF701F9
S1131CB08681978123C08FEF9FEF20C0B70180E218
S1131CC090E05BD15A945110F9CFDACF512CB7017F
S1131CD0802F90E052D1D6CF06EF10E0D8CF9110EC
S1131CE08052B70190E049D10F5F1F4FD3CF23E05B
S1131CF0251510F483E0C1CF512CC4CF60960FB6E4
S1131D00F894DEBF0FBECDBFDF91CF911F910F912D
S1131D10FF90EF90DF90CF90BF90AF909F908F9007
S1131D207F906F905F904F903F902F900895EE0FAB
S1131D30FF1F881F8BBF0790F691E02D1994EF9237
S1131D400F931F93CF93DF93E80147FD02C034E064
S1131D5001C034E1042E000C550B57FF03C051950C
S1131D6041955109E32E022F242FAE01F4D4CE0164
S1131D70DF91CF911F910F91EF900895283008F0D3
S1131D8027E03327DA01990F311D87FD9160009612
S1131D906105710539F432602E5F3D9330E32A9575
S1131DA0E1F708959F3F30F080387105610509F02F
S1131DB03C5F3C5F3D93913008F08068911DDF9358
S1131DC0CF931F930F93FF92EF92192F987F9695BD
S1131DD0E92F96959695E90FFF27EC5AFE4F992720
S1131DE03327EE24FF24A701E70105900894079404
S1131DF028F4360FE71EF81E491F511D660F771F82
S1131E00881F991F0694A1F70590079428F4E70EFC
S1131E10F81E491F561FC11D770F881F991F661F83
S1131E200694A1F70590079428F4F80E491F561F4D
S1131E30C71FD11D880F991F661F771F0694A1F72E
S1131E400590079420F4490F561FC71FD81F990FF8
S1131E50661F771F881F0694A9F784911095177041
S1131E6041F0D695C79557954795F794E7941A95F9
S1131E70C1F7EAEFF0E068941590159135916591FA
S1131E80959105907FE27395E118F10A430B560B87
S1131E90C90BD009C0F7E10CF11E431F561FC91F1F
S1131EA0D01D7EF4703311F48A95E6CFE894015086
S1131EB030F0080F0AF40027021708F4202F2395A6
S1131EC0022F7A3328F079E37D932A95E9F710C03D
S1131ED07D932A9589F60694979567953795179576
S1131EE01794E118F10A430B560BC90BD00998F06B
S1131EF023957E9173957A3308F070E37C932013D5
S1131F00B8F77E9170617D9330F0839571E37D9392
S1131F1070E32A95E1F71124EF90FF900F911F9140
S1131F20CF91DF91992787FD909508959111089598
S1131F3081548A5108F4805E855A0895FC01059005
S1131F40615070400110D8F7809590958E0F9F1FB7
S1131F500895FB01DC018D91019080190110D9F3E2
S1131F60990B0895FC016150704001900110D8F75D
S1131F70809590958E0F9F1F08950F931F93CF9375
S1131F80DF93FB01238121FD03C08FEF9FEF2CC062
S1131F9022FF16C046815781248135814217530799
S1131FA044F4A081B1819D012F5F3F4F3183208391
S1131FB08C93268137812F5F3F4F3783268314C04C
S1131FC08B01EC01FB010084F185E02D1995892B2F
S1131FD0E1F6D80116968D919C9117970196179664
S1131FE09C938E931697CE01DF91CF911F910F9101
S1131FF008950F931F93CF93DF93CDB7DEB72E973A
S11320000FB6F894DEBF0FBECDBF0E891F89888D31
S1132010998D26E02C831A83098397FF02C080E000
S113202090E801979E838D83AE01445E5F4F6A8D75
S11320307B8DCE010196F2DA4D815E8157FD0AC097
S11320402F813885421753070CF49A01F801E20FE7
S1132050F31F10822E960FB6F894DEBF0FBECDBFCD
S1132060DF91CF911F910F9108950F931F93CF93F9
S1132070DF93CDB7DEB72E970FB6F894DEBF0FBE51
S1132080CDBF0E891F8986E08C831A8309838FEF65
S11320909FE79E838D83AE01465E5F4F688D798D89
S11320A0CE010196BBDAEF81F885E00FF11F1082B3
S11320B02E960FB6F894DEBF0FBECDBFDF91CF9141
S11320C01F910F910895CF93DF93CDB7DEB72E976D
S11320D00FB6F894DEBF0FBECDBF85E08C838C892C
S11320E09D899A838983AE01485E5F4F6E897F899B
S11320F0CE01019619D22E960FB6F894DEBF0FBE0C
S1132100CDBFDF91CF910895FA01AA27283051F16C
S1132110203181F1E8946F936E7F6E5F7F4F8F4F14
S11321209F4FAF4FB1E03ED0B4E03CD0670F781F73
S1132130891F9A1FA11D680F791F8A1F911DA11D58
S11321406A0F711D811D911DA11D20D009F4689491
S11321503F912AE0269F11243019305D3193DEF639
S1132160CF010895462F4770405D4193B3E00FD0EF
S1132170C9F7F6CF462F4F70405D4A3318F0495DDA
S113218031FD4052419302D0A9F7EACFB4E0A695BD
S11321909795879577956795BA95C9F700976105DF
S11321A0710508959B01AC010A2E06945795479535
S11321B037952795BA95C9F7620F731F841F951F2A
S11321C0A01D089520FD09C0FC0123FD05C022FFC8
S11321D002C07383628351834083089544FD17C012
S11321E046FD17C0AB01BC01DA01FB01AA0FBB1FFE
S11321F0EE1FFF1F1094D1F74A0F5B1F6E1F7F1F46
S1132200CB01BA01660F771F881F991F09C033E0FD
S113221001C034E0660F771F881F991F3150D1F732
S1132220620F711D811D911D08950F931F93CF930C
S1132230DF938C01C80118D4EC0197FD06C001D4CA
S1132240892BC1F7B801CE014DD4CE01DF91CF91D6
S11322501F910F9108958F929F92AF92BF92EF9228
S1132260FF920F931F93CF93DF938C01D62F7A01A4
S1132270B22EFAD39C0133272B32310531F02D32A3
S1132280310559F48B2D8068B82ED15011F480E0BB
S113229061C0C801E9D397FDFACFCB2DCD7F2B2D9B
S11322A02073F9F48033E9F4AA24AA94AD0E09F456
S11322B03EC0C801D9D397FD3AC09C012F7D332776
S11322C02835310541F4C264D25089F1C801CCD318
S11322D097FF07C02CC0B6FE02C0C26001C0C26135
S11322E0DA2D812C912C540120ED280F283078F020
S11322F0C4FF03C0B801F6D317C02A3040F0C6FFAC
S1132300F9CF2F7D3FEE320F3630A0F727504C2FF8
S1132310C501B40163DF4B015C01C260D15051F0CF
S1132320C801A2D397FFE0CFC1FD04C0B0CF812C78
S1132330912C5401C7FF08C0B094A0949094809449
S1132340811C911CA11CB11C2C2FB501A401C70137
S113235039DF81E0DF91CF911F910F91FF90EF90D2
S1132360BF90AF909F908F9008955F926F927F92ED
S11323708F929F92AF92BF92CF92DF92EF92FF9291
S11323800F931F93CF93DF93CDB7DEB7A0970FB60C
S1132390F894DEBF0FBECDBF5C01962E7A01F90121
S11323A08E010F5F1F4F680180E2D8011D928A954C
S11323B0E9F7D50113968C9080E090E0612C712CA4
S11323C030E061E070E083FC259183FE21918F0170
S11323D0522E211103C080E090E090C02E3511F4FC
S11323E0009751F1432F50E0481759073CF42D351D
S11323F059F12D3219F4772009F103C0772009F43B
S113240068C0452D469546954695D601A40FB11D45
S1132410452D47708B0102C0000F111F4A95E2F74A
S1132420A8015C91452B4C93651459F0561410F493
S11324305394E7CF5A94E5CF31E004C077247394E2
S113244001C0712C0196BFCF772019F08E81806274
S11324508E83311103C08824839417C0F6019E0132
S11324602F5D3F4F8081809581932E173F07D1F7D1
S1132470F2CFE114F10429F0D7018C93F7013196DE
S11324807F019A94812C9920E9F0C501EDD297FD42
S113249017C0FC01FF2723E0F595E7952A95E1F79E
S11324A0EC0DFD1D208130E0AC014770552702C0C2
S11324B0359527954A95E2F720FDDBCFB50112D378
S11324C0811089CFE114F10411F0D7011C92C801E5
S11324D015C0422F469546954695D601A40FB11DC9
S11324E0422F47708B0102C0000F111F4A95E2F77B
S11324F0A8015C91452B4C93622EA4CFA0960FB6F5
S1132500F894DEBF0FBECDBFDF91CF911F910F9125
S1132510FF90EF90DF90CF90BF90AF909F908F90FF
S11325207F906F905F9008955F926F927F928F92E9
S11325309F92AF92BF92CF92DF92EF92FF920F934E
S11325401F93CF93DF936C01EB015A01FC011782B7
S11325501682512CF601E380FE01E3FC8591E3FE33
S11325608191182FEF01882309F4E0C090E069D22B
S1132570892B19F0C60159DEEDCF153241F4FE0165
S1132580E3FC1591E3FE1191EF01153271F4C601DC
S11325906BD297FDC9C0412F50E09C01332724170B
S11325A03507C1F2B6019ED2C1C01A3239F4E3FC38
S11325B01591E3FE1191EF0101E001C000E0F12C5F
S11325C020ED210F2A3078F402606F2D70E080E056
S11325D090E040E203DEF62EFE01E3FC1591E3FEFB
S11325E01191EF01EDCF01FF03C0F11003C09EC0B4
S11325F0FF24FA94183619F01C3651F010C0FE016D
S1132600E3FC1591E3FE1191EF01183641F40860E3
S11326100460FE01E3FC1591E3FE1191EF01112327
S113262009F484C0612F70E084EF91E012D2892B09
S113263009F47CC000FD07C0F50180809180C501CC
S113264002965C0102C0812C912C1E3649F4F601DD
S11326504681578160E070E0202FC401B3DD7ACF5A
S11326601336A1F401FD02C0FF24F394C601FCD18A
S113267097FD5AC08114910429F0F4018083C401A8
S113268001964C01FA94F110F1CF4AC01B3551F474
S11326909E01A4016F2DC60168DEEC01892B09F0AF
S11326A03FC039C0C601C1DD97FD3EC01F3649F1A8
S11326B028F4143621F1193639F125C0133771F095
S11326C01537E9F020C08114910429F0F4016082E7
S11326D0C40101964C01FA94FF2059F0C601C4D1FB
S11326E03C0197FD06C0ADD1892B69F3B601C30146
S11326F0F9D181149104A1F0F401108211C0006297
S113270003C0006101C00064202FA4016F2DC60125
S1132710A2DD811105C0F6018381807329F406C00E
S113272000FD18CF539416CF552019F0852D90E055
S113273002C08FEF9FEFDF91CF911F910F91FF9018
S1132740EF90DF90CF90BF90AF909F908F907F904D
S11327506F905F9008958F929F92AF92BF92CF92A5
S1132760DF92EF92FF920F931F93CF93DF93CDB736
S1132770DEB729970FB6F894DEBF0FBECDBF6A014E
S1132780122FB02E2BE3201720F0FF24F394F00E29
S113279002C02CE3F22E0F2D27E0AE014F5F5F4FF6
S11327A0EDDABC014981842F8970813031F0E1FC7C
S11327B006C0E0FE06C090E205C09DE203C09BE2B5
S11327C001C090E05E2D507143FF3CC0911102C0E6
S11327D083E001C084E0811718F4212F281B01C075
S11327E020E051110BC0F601822F30E2882319F04A
S11327F031938150FBCFC20ED11C20E0992329F0E4
S1132800D6019C93F60131966F01C6010396E2FE50
S11328100AC03EE4D6013C9341E411964C931197CF
S113282012963C9306C03EE6F601308341E64183AE
S11328303283FC01322F40E2332309F442C0419336
S11328403150FACF42FF44C0911102C083E001C06D
S113285084E0811718F4212F281B01C020E05111B6
S11328600BC0F601822F30E2882319F03193815096
S1132870FBCFC20ED11C20E0992329F0D6019C93F2
S1132880F60131966F01C6010396E2FE0BC039E4EE
S1132890D6013C933EE411963C93119736E412968C
S11328A03C9307C039E6F60130833EE6318336E6D1
S11328B03283FC01322F40E2332319F0419331502B
S11328C0FBCFFC01E20FF11D10828EEF9FEFA6C03B
S11328D021E030E0911102C020E030E01616170626
S11328E01CF4FB01319602C0E1E0F0E02E0F3F1F23
S11328F0BB2021F0EB2DF0E0319602C0E0E0F0E0E7
S11329002E0F3F1FE12FF0E02E173F071CF4121B80
S1132910212F01C020E08E2D887159F4F601822FF9
S113292030E2882319F031938150FBCFC20ED11CC1
S113293020E0992329F0D6019C93F60131966F018A
S113294051110BC0F601822F90E3882319F0919363
S11329508150FBCFC20ED11C20E00F2D060F9A81AF
S1132960342F307144FF03C0913309F40150101621
S113297024F4093018F008E001C001E0AB0177FF4E
S113298002C040E050E0FB01E41BF50BA1E0B0E025
S1132990AC0FBD1FEA0FFB1F8EE2A82E4B01801A5D
S11329A091080B2D10E01195019511094F3FBFEFD0
S11329B05B0721F4D601AC9211966D01641775077B
S11329C02CF08416950614F4818101C080E34150F3
S11329D051093196D60111967D014017510724F013
S11329E0D6018C936701E2CF6417750739F49633E7
S11329F020F4953319F4311101C081E3F601808389
S1132A00F701822F90E2882319F091938150FBCF34
S1132A10F701E20FF11D108280E090E029960FB6D5
S1132A20F894DEBF0FBECDBFDF91CF911F910F9100
S1132A30FF90EF90DF90CF90BF90AF909F908F90DA
S1132A400895911168C0803219F089508550D0F7EB
S1132A500895FC010590061621F00020D9F7C00165
S1132A6008953197CF010895CF93DF93EC012B8123
S1132A7020FF33C026FF0AC02F7B2B838E819F81CA
S1132A8001969F838E838A8190E029C022FF0FC024
S1132A90E881F9818081082E000C990B009719F4C4
S1132AA020622B831AC03196F983E8830EC0EA852D
S1132AB0FB85199597FF09C02B81019611F080E2DF
S1132AC001C080E1822B8B8308C02E813F812F5F60
S1132AD03F4F3F832E83992702C08FEF9FEFDF91F3
S1132AE0CF910895FB01238120FF12C026FD10C061
S1132AF08F3F3FEF930761F082832F7D2064238310
S1132B0026813781215031093783268399270895F7
S1132B108FEF9FEF0895992788270895F894FFCFA2
S1132B200A436F6E6E656374656420746F20446F2E
S1132B30636B6C696768740D0A000A436F6E6E6597
S1132B40637420746F20424D373120424C45200D70
S1132B500A00242566202566202566202566202572
S1132B60662025663B0053454E4420434D44204C8B
S1132B70494E450A00312E205445524D494E414C90
S1132B800A322E20424C450A332E20504C4F540A10
S1132B90342E204D4F444255530A352E20414C4C7F
S1132BA00053454E4420434D44204C494E45002596
S1132BB0353131730050203D20256420434D44209D
S1132BC03D2022257322200D0A00414443203D204C
S1132BD025730D0A00566F6C74616765203D2025CE
S1132BE07320560D0A00526573697374616E6365D0
S1132BF0205265666572656E6365203D20257320ED
S1132C006B4F686D0D0A00526573697374616E636E
S1132C106520506F74656E7469616C203D20257366
S1132C20204F686D0D0A0043757272656E74203D05
S1132C3020257320410D0A00506F776572203D20D6
S1132C40257320570D0A00456E65726779203D2073
S1132C5025732057730D0A007465726D696E616C7B
S1132C6000626C6500706C6F74006D6F64627573E4
S1132C7000616C6C00416463203D202566200D0AD0
S1132C8000566F6C74616765203D20256620560DE3
S1132C900A00526573697374616E636520526566D8
S1132CA06572656E6365203D202566206B4F686DF7
S1132CB00D0A00526573697374616E636520506F09
S1132CC074656E7469616C203D202566204F686DC3
S1132CD00D0A0043757272656E74203D20256620CE
S1132CE0410D0A00506F776572203D2025662057FC
S1132CF00D0A00456E65726779203D2025662057D0
S1112D00730D0A0045525220434D440D0A0043
S9030000FC
